{
  "contractName": "Youtube",
  "abi": [
    {
      "constant": true,
      "inputs": [],
      "name": "totalVideos",
      "outputs": [
        {
          "internalType": "uint256",
          "name": "",
          "type": "uint256"
        }
      ],
      "payable": false,
      "stateMutability": "view",
      "type": "function"
    },
    {
      "constant": true,
      "inputs": [
        {
          "internalType": "uint256",
          "name": "",
          "type": "uint256"
        }
      ],
      "name": "videos",
      "outputs": [
        {
          "internalType": "uint256",
          "name": "Id",
          "type": "uint256"
        },
        {
          "internalType": "string",
          "name": "ipfslink",
          "type": "string"
        },
        {
          "internalType": "string",
          "name": "about",
          "type": "string"
        }
      ],
      "payable": false,
      "stateMutability": "view",
      "type": "function"
    },
    {
      "constant": false,
      "inputs": [
        {
          "internalType": "string",
          "name": "link",
          "type": "string"
        },
        {
          "internalType": "string",
          "name": "_about",
          "type": "string"
        }
      ],
      "name": "putVideo",
      "outputs": [],
      "payable": false,
      "stateMutability": "nonpayable",
      "type": "function"
    }
  ],
  "bytecode": "0x60806040526000805534801561001457600080fd5b506105bd806100246000396000f3fe608060405234801561001057600080fd5b50600436106100415760003560e01c80636ed4096014610046578063e230a20814610198578063e6821bf5146101b6575b600080fd5b6101966004803603604081101561005c57600080fd5b810190808035906020019064010000000081111561007957600080fd5b82018360208201111561008b57600080fd5b803590602001918460018302840111640100000000831117156100ad57600080fd5b91908080601f016020809104026020016040519081016040528093929190818152602001838380828437600081840152601f19601f8201169050808301925050505050505091929192908035906020019064010000000081111561011057600080fd5b82018360208201111561012257600080fd5b8035906020019184600183028401116401000000008311171561014457600080fd5b91908080601f016020809104026020016040519081016040528093929190818152602001838380828437600081840152601f19601f8201169050808301925050505050505091929192905050506102d0565b005b6101a0610376565b6040518082815260200191505060405180910390f35b6101e2600480360360208110156101cc57600080fd5b810190808035906020019092919050505061037c565b604051808481526020018060200180602001838103835285818151815260200191508051906020019080838360005b8381101561022c578082015181840152602081019050610211565b50505050905090810190601f1680156102595780820380516001836020036101000a031916815260200191505b50838103825284818151815260200191508051906020019080838360005b83811015610292578082015181840152602081019050610277565b50505050905090810190601f1680156102bf5780820380516001836020036101000a031916815260200191505b509550505050505060405180910390f35b60016040518060600160405280600054815260200184815260200183815250908060018154018082558091505090600182039060005260206000209060030201600090919290919091506000820151816000015560208201518160010190805190602001906103409291906104e3565b50604082015181600201908051906020019061035d9291906104e3565b5050505060008081548092919060010191905055505050565b60005481565b6001818154811061038957fe5b9060005260206000209060030201600091509050806000015490806001018054600181600116156101000203166002900480601f01602080910402602001604051908101604052809291908181526020018280546001816001161561010002031660029004801561043b5780601f106104105761010080835404028352916020019161043b565b820191906000526020600020905b81548152906001019060200180831161041e57829003601f168201915b505050505090806002018054600181600116156101000203166002900480601f0160208091040260200160405190810160405280929190818152602001828054600181600116156101000203166002900480156104d95780601f106104ae576101008083540402835291602001916104d9565b820191906000526020600020905b8154815290600101906020018083116104bc57829003601f168201915b5050505050905083565b828054600181600116156101000203166002900490600052602060002090601f016020900481019282601f1061052457805160ff1916838001178555610552565b82800160010185558215610552579182015b82811115610551578251825591602001919060010190610536565b5b50905061055f9190610563565b5090565b61058591905b80821115610581576000816000905550600101610569565b5090565b9056fea265627a7a72315820959b4ba248c3a54553b98ba2a9dfc37f258f381b740dc9b4c7dc72a31f94483564736f6c63430005100032",
  "source": "pragma solidity ^0.5.11;\r\n\r\ncontract Youtube{\r\n\r\n\r\n    uint public totalVideos = 0;\r\n    struct video{\r\n        uint Id;\r\n        string ipfslink;\r\n        string about;\r\n    }\r\n    video[] public videos;\r\n    function putVideo(string memory link,string memory _about) public{\r\n        videos.push(video(totalVideos,link,_about));\r\n        totalVideos++;\r\n    }\r\n\r\n\r\n}",
  "sourcePath": "C:\\Users\\kusha\\Desktop\\dapp practice\\youtube\\contracts\\Youtube.sol",
  "compiler": {
    "name": "solc",
    "version": "0.5.16+commit.9c3226ce.Emscripten.clang"
  },
  "schemaVersion": "3.4.4",
  "updatedAt": "2022-06-07T08:43:46.612Z",
  "networkType": "ethereum",
  "devdoc": {
    "methods": {}
  },
  "userdoc": {
    "methods": {}
  }
}